{
  "contractName": "AcademicRecords",
  "abi": [
    {
      "inputs": [
        {
          "internalType": "string",
          "name": "_id",
          "type": "string"
        },
        {
          "internalType": "string",
          "name": "_studentName",
          "type": "string"
        },
        {
          "internalType": "string",
          "name": "_grade",
          "type": "string"
        }
      ],
      "name": "createRecord",
      "outputs": [],
      "stateMutability": "nonpayable",
      "type": "function"
    },
    {
      "inputs": [
        {
          "internalType": "string",
          "name": "_id",
          "type": "string"
        }
      ],
      "name": "getRecord",
      "outputs": [
        {
          "internalType": "string",
          "name": "",
          "type": "string"
        },
        {
          "internalType": "string",
          "name": "",
          "type": "string"
        }
      ],
      "stateMutability": "view",
      "type": "function",
      "constant": true
    },
    {
      "inputs": [],
      "name": "getAllRecords",
      "outputs": [
        {
          "components": [
            {
              "internalType": "string",
              "name": "studentName",
              "type": "string"
            },
            {
              "internalType": "string",
              "name": "grade",
              "type": "string"
            }
          ],
          "internalType": "struct AcademicRecords.Record[]",
          "name": "",
          "type": "tuple[]"
        }
      ],
      "stateMutability": "view",
      "type": "function",
      "constant": true
    }
  ],
  "bytecode": "0x608060405234801561001057600080fd5b50610c42806100206000396000f3fe608060405234801561001057600080fd5b50600436106100415760003560e01c806311dd884514610046578063a7f9fe7214610077578063facff5d214610095575b600080fd5b610060600480360381019061005b9190610672565b6100b1565b60405161006e929190610989565b60405180910390f35b61007f610218565b60405161008c9190610967565b60405180910390f35b6100af60048036038101906100aa91906106b3565b61049c565b005b606080600080846040516100c59190610939565b90815260200160405180910390206040518060400160405290816000820180546100ee90610af3565b80601f016020809104026020016040519081016040528092919081815260200182805461011a90610af3565b80156101675780601f1061013c57610100808354040283529160200191610167565b820191906000526020600020905b81548152906001019060200180831161014a57829003601f168201915b5050505050815260200160018201805461018090610af3565b80601f01602080910402602001604051908101604052809291908181526020018280546101ac90610af3565b80156101f95780601f106101ce576101008083540402835291602001916101f9565b820191906000526020600020905b8154815290600101906020018083116101dc57829003601f168201915b5050505050815250509050806000015181602001519250925050915091565b6060600060018054905067ffffffffffffffff811115610261577f4e487b7100000000000000000000000000000000000000000000000000000000600052604160045260246000fd5b60405190808252806020026020018201604052801561029a57816020015b61028761054d565b81526020019060019003908161027f5790505b50905060005b600180549050811015610494576000600182815481106102e9577f4e487b7100000000000000000000000000000000000000000000000000000000600052603260045260246000fd5b906000526020600020016040516103009190610950565b908152602001604051809103902060405180604001604052908160008201805461032990610af3565b80601f016020809104026020016040519081016040528092919081815260200182805461035590610af3565b80156103a25780601f10610377576101008083540402835291602001916103a2565b820191906000526020600020905b81548152906001019060200180831161038557829003601f168201915b505050505081526020016001820180546103bb90610af3565b80601f01602080910402602001604051908101604052809291908181526020018280546103e790610af3565b80156104345780601f1061040957610100808354040283529160200191610434565b820191906000526020600020905b81548152906001019060200180831161041757829003601f168201915b505050505081525050828281518110610476577f4e487b7100000000000000000000000000000000000000000000000000000000600052603260045260246000fd5b6020026020010181905250808061048c90610b25565b9150506102a0565b508091505090565b6040518060400160405280838152602001828152506000846040516104c19190610939565b908152602001604051809103902060008201518160000190805190602001906104eb929190610567565b506020820151816001019080519060200190610508929190610567565b50905050600183908060018154018082558091505060019003906000526020600020016000909190919091509080519060200190610547929190610567565b50505050565b604051806040016040528060608152602001606081525090565b82805461057390610af3565b90600052602060002090601f01602090048101928261059557600085556105dc565b82601f106105ae57805160ff19168380011785556105dc565b828001600101855582156105dc579182015b828111156105db5782518255916020019190600101906105c0565b5b5090506105e991906105ed565b5090565b5b808211156106065760008160009055506001016105ee565b5090565b600061061d610618846109f1565b6109c0565b90508281526020810184848401111561063557600080fd5b610640848285610ab1565b509392505050565b600082601f83011261065957600080fd5b813561066984826020860161060a565b91505092915050565b60006020828403121561068457600080fd5b600082013567ffffffffffffffff81111561069e57600080fd5b6106aa84828501610648565b91505092915050565b6000806000606084860312156106c857600080fd5b600084013567ffffffffffffffff8111156106e257600080fd5b6106ee86828701610648565b935050602084013567ffffffffffffffff81111561070b57600080fd5b61071786828701610648565b925050604084013567ffffffffffffffff81111561073457600080fd5b61074086828701610648565b9150509250925092565b600061075683836108f5565b905092915050565b600061076982610a46565b6107738185610a69565b93508360208202850161078585610a21565b8060005b858110156107c157848403895281516107a2858261074a565b94506107ad83610a5c565b925060208a01995050600181019050610789565b50829750879550505050505092915050565b60006107de82610a51565b6107e88185610a7a565b93506107f8818560208601610ac0565b61080181610bfb565b840191505092915050565b600061081782610a51565b6108218185610a8b565b9350610831818560208601610ac0565b61083a81610bfb565b840191505092915050565b600061085082610a51565b61085a8185610a9c565b935061086a818560208601610ac0565b80840191505092915050565b6000815461088381610af3565b61088d8186610a9c565b945060018216600081146108a857600181146108b9576108ec565b60ff198316865281860193506108ec565b6108c285610a31565b60005b838110156108e4578154818901526001820191506020810190506108c5565b838801955050505b50505092915050565b6000604083016000830151848203600086015261091282826107d3565b9150506020830151848203602086015261092c82826107d3565b9150508091505092915050565b60006109458284610845565b915081905092915050565b600061095c8284610876565b915081905092915050565b60006020820190508181036000830152610981818461075e565b905092915050565b600060408201905081810360008301526109a3818561080c565b905081810360208301526109b7818461080c565b90509392505050565b6000604051905081810181811067ffffffffffffffff821117156109e7576109e6610bcc565b5b8060405250919050565b600067ffffffffffffffff821115610a0c57610a0b610bcc565b5b601f19601f8301169050602081019050919050565b6000819050602082019050919050565b60008190508160005260206000209050919050565b600081519050919050565b600081519050919050565b6000602082019050919050565b600082825260208201905092915050565b600082825260208201905092915050565b600082825260208201905092915050565b600081905092915050565b6000819050919050565b82818337600083830152505050565b60005b83811015610ade578082015181840152602081019050610ac3565b83811115610aed576000848401525b50505050565b60006002820490506001821680610b0b57607f821691505b60208210811415610b1f57610b1e610b9d565b5b50919050565b6000610b3082610aa7565b91507fffffffffffffffffffffffffffffffffffffffffffffffffffffffffffffffff821415610b6357610b62610b6e565b5b600182019050919050565b7f4e487b7100000000000000000000000000000000000000000000000000000000600052601160045260246000fd5b7f4e487b7100000000000000000000000000000000000000000000000000000000600052602260045260246000fd5b7f4e487b7100000000000000000000000000000000000000000000000000000000600052604160045260246000fd5b6000601f19601f830116905091905056fea2646970667358221220c08e0b3d0570dafc7b371ac1594173cfbc85c3cb5de79bbe108979f6c235930064736f6c63430008000033",
  "immutableReferences": {},
  "source": "// SPDX-License-Identifier: MIT\r\npragma solidity ^0.8.0;\r\n\r\ncontract AcademicRecords {\r\n    struct Record {\r\n        string studentName;\r\n        string grade;\r\n    }\r\n\r\n    mapping(string => Record) private records;\r\n    string[] private studentIds;\r\n\r\n    function createRecord(string memory _id, string memory _studentName, string memory _grade) public {\r\n        records[_id] = Record(_studentName, _grade);\r\n        studentIds.push(_id);\r\n    }\r\n\r\n    function getRecord(string memory _id) public view returns (string memory, string memory) {\r\n        Record memory record = records[_id];\r\n        return (record.studentName, record.grade);\r\n    }\r\n\r\n    function getAllRecords() public view returns (Record[] memory) {\r\n        Record[] memory allRecords = new Record[](studentIds.length);\r\n        for (uint i = 0; i < studentIds.length; i++) {\r\n            allRecords[i] = records[studentIds[i]];\r\n        }\r\n        return allRecords;\r\n    }\r\n}\r\n",
  "sourcePath": "C:\\Users\\yasha\\Desktop\\Blockchain\\SmartLearning\\contracts\\AcademicRecords.sol",
  "compiler": {
    "name": "solc",
    "version": "0.8.0+commit.c7dfd78e.Emscripten.clang"
  },
  "schemaVersion": "3.4.16",
  "updatedAt": "2024-06-08T06:40:24.985Z",
  "networkType": "ethereum",
  "devdoc": {
    "kind": "dev",
    "methods": {},
    "version": 1
  },
  "userdoc": {
    "kind": "user",
    "methods": {},
    "version": 1
  }
}